{
	"data": {
		"bytecode": {
			"linkReferences": {},
			"object": "608060405234801561001057600080fd5b50600180546001600160a01b0319163317905560fe806100316000396000f3fe6080604052348015600f57600080fd5b506004361060325760003560e01c8063422beeba146037578063efedc669146048575b600080fd5b6046604236600460b0565b6062565b005b605060005481565b60405190815260200160405180910390f35b6001546001600160a01b031633141560ad5760008190556040518181527f5f3f6580647c05fdac171cc0c412b58223e6847cff1a2b4d54eb6a234eadb4ad9060200160405180910390a15b50565b60006020828403121560c157600080fd5b503591905056fea2646970667358221220656e33043232dc5f4421cff9b7a8470bbbdd9be1d4fd30538188b4e082772ff164736f6c63430008070033",
			"opcodes": "PUSH1 0x80 PUSH1 0x40 MSTORE CALLVALUE DUP1 ISZERO PUSH2 0x10 JUMPI PUSH1 0x0 DUP1 REVERT JUMPDEST POP PUSH1 0x1 DUP1 SLOAD PUSH1 0x1 PUSH1 0x1 PUSH1 0xA0 SHL SUB NOT AND CALLER OR SWAP1 SSTORE PUSH1 0xFE DUP1 PUSH2 0x31 PUSH1 0x0 CODECOPY PUSH1 0x0 RETURN INVALID PUSH1 0x80 PUSH1 0x40 MSTORE CALLVALUE DUP1 ISZERO PUSH1 0xF JUMPI PUSH1 0x0 DUP1 REVERT JUMPDEST POP PUSH1 0x4 CALLDATASIZE LT PUSH1 0x32 JUMPI PUSH1 0x0 CALLDATALOAD PUSH1 0xE0 SHR DUP1 PUSH4 0x422BEEBA EQ PUSH1 0x37 JUMPI DUP1 PUSH4 0xEFEDC669 EQ PUSH1 0x48 JUMPI JUMPDEST PUSH1 0x0 DUP1 REVERT JUMPDEST PUSH1 0x46 PUSH1 0x42 CALLDATASIZE PUSH1 0x4 PUSH1 0xB0 JUMP JUMPDEST PUSH1 0x62 JUMP JUMPDEST STOP JUMPDEST PUSH1 0x50 PUSH1 0x0 SLOAD DUP2 JUMP JUMPDEST PUSH1 0x40 MLOAD SWAP1 DUP2 MSTORE PUSH1 0x20 ADD PUSH1 0x40 MLOAD DUP1 SWAP2 SUB SWAP1 RETURN JUMPDEST PUSH1 0x1 SLOAD PUSH1 0x1 PUSH1 0x1 PUSH1 0xA0 SHL SUB AND CALLER EQ ISZERO PUSH1 0xAD JUMPI PUSH1 0x0 DUP2 SWAP1 SSTORE PUSH1 0x40 MLOAD DUP2 DUP2 MSTORE PUSH32 0x5F3F6580647C05FDAC171CC0C412B58223E6847CFF1A2B4D54EB6A234EADB4AD SWAP1 PUSH1 0x20 ADD PUSH1 0x40 MLOAD DUP1 SWAP2 SUB SWAP1 LOG1 JUMPDEST POP JUMP JUMPDEST PUSH1 0x0 PUSH1 0x20 DUP3 DUP5 SUB SLT ISZERO PUSH1 0xC1 JUMPI PUSH1 0x0 DUP1 REVERT JUMPDEST POP CALLDATALOAD SWAP2 SWAP1 POP JUMP INVALID LOG2 PUSH5 0x6970667358 0x22 SLT KECCAK256 PUSH6 0x6E33043232DC 0x5F DIFFICULTY 0x21 0xCF 0xF9 0xB7 0xA8 SELFBALANCE SIGNEXTEND 0xBB 0xDD SWAP12 0xE1 0xD4 REVERT ADDRESS MSTORE8 DUP2 DUP9 0xB4 0xE0 DUP3 PUSH24 0x2FF164736F6C634300080700330000000000000000000000 "
		},
		"gasEstimates": {
			"creation": {
				"codeDepositCost": "50800",
				"executionCost": "24334",
				"totalCost": "75134"
			},
			"external": {
				"score()": "2283",
				"setScore(uint256)": "25510"
			}
		},
		"methodIdentifiers": {
			"score()": "efedc669",
			"setScore(uint256)": "422beeba"
		}
	},
	"abi": [
		{
			"inputs": [],
			"stateMutability": "nonpayable",
			"type": "constructor"
		},
		{
			"anonymous": false,
			"inputs": [
				{
					"indexed": false,
					"internalType": "uint256",
					"name": "",
					"type": "uint256"
				}
			],
			"name": "ScoreSet",
			"type": "event"
		},
		{
			"inputs": [],
			"name": "score",
			"outputs": [
				{
					"internalType": "uint256",
					"name": "",
					"type": "uint256"
				}
			],
			"stateMutability": "view",
			"type": "function"
		},
		{
			"inputs": [
				{
					"internalType": "uint256",
					"name": "_newScore",
					"type": "uint256"
				}
			],
			"name": "setScore",
			"outputs": [],
			"stateMutability": "nonpayable",
			"type": "function"
		}
	]
}