{
  "_format": "hh-sol-artifact-1",
  "contractName": "VolcanoNFT",
  "sourceName": "contracts/VolcanoNft.sol",
  "abi": [
    {
      "inputs": [],
      "stateMutability": "nonpayable",
      "type": "constructor"
    },
    {
      "anonymous": false,
      "inputs": [
        {
          "indexed": true,
          "internalType": "address",
          "name": "owner",
          "type": "address"
        },
        {
          "indexed": true,
          "internalType": "address",
          "name": "approved",
          "type": "address"
        },
        {
          "indexed": true,
          "internalType": "uint256",
          "name": "tokenId",
          "type": "uint256"
        }
      ],
      "name": "Approval",
      "type": "event"
    },
    {
      "anonymous": false,
      "inputs": [
        {
          "indexed": true,
          "internalType": "address",
          "name": "owner",
          "type": "address"
        },
        {
          "indexed": true,
          "internalType": "address",
          "name": "operator",
          "type": "address"
        },
        {
          "indexed": false,
          "internalType": "bool",
          "name": "approved",
          "type": "bool"
        }
      ],
      "name": "ApprovalForAll",
      "type": "event"
    },
    {
      "anonymous": false,
      "inputs": [
        {
          "indexed": true,
          "internalType": "address",
          "name": "previousOwner",
          "type": "address"
        },
        {
          "indexed": true,
          "internalType": "address",
          "name": "newOwner",
          "type": "address"
        }
      ],
      "name": "OwnershipTransferred",
      "type": "event"
    },
    {
      "anonymous": false,
      "inputs": [
        {
          "indexed": true,
          "internalType": "address",
          "name": "from",
          "type": "address"
        },
        {
          "indexed": true,
          "internalType": "address",
          "name": "to",
          "type": "address"
        },
        {
          "indexed": true,
          "internalType": "uint256",
          "name": "tokenId",
          "type": "uint256"
        }
      ],
      "name": "Transfer",
      "type": "event"
    },
    {
      "inputs": [
        {
          "internalType": "address",
          "name": "to",
          "type": "address"
        },
        {
          "internalType": "uint256",
          "name": "tokenId",
          "type": "uint256"
        }
      ],
      "name": "approve",
      "outputs": [],
      "stateMutability": "nonpayable",
      "type": "function"
    },
    {
      "inputs": [
        {
          "internalType": "address",
          "name": "owner",
          "type": "address"
        }
      ],
      "name": "balanceOf",
      "outputs": [
        {
          "internalType": "uint256",
          "name": "",
          "type": "uint256"
        }
      ],
      "stateMutability": "view",
      "type": "function"
    },
    {
      "inputs": [
        {
          "internalType": "uint256",
          "name": "tokenId",
          "type": "uint256"
        }
      ],
      "name": "getApproved",
      "outputs": [
        {
          "internalType": "address",
          "name": "",
          "type": "address"
        }
      ],
      "stateMutability": "view",
      "type": "function"
    },
    {
      "inputs": [
        {
          "internalType": "address",
          "name": "_nftOwner",
          "type": "address"
        }
      ],
      "name": "getMeta",
      "outputs": [
        {
          "components": [
            {
              "internalType": "uint256",
              "name": "timestamp",
              "type": "uint256"
            },
            {
              "internalType": "uint256",
              "name": "tokenID",
              "type": "uint256"
            },
            {
              "internalType": "string",
              "name": "tokenURI",
              "type": "string"
            }
          ],
          "internalType": "struct VolcanoNFT.MetaData[]",
          "name": "",
          "type": "tuple[]"
        }
      ],
      "stateMutability": "view",
      "type": "function"
    },
    {
      "inputs": [
        {
          "internalType": "address",
          "name": "owner",
          "type": "address"
        },
        {
          "internalType": "address",
          "name": "operator",
          "type": "address"
        }
      ],
      "name": "isApprovedForAll",
      "outputs": [
        {
          "internalType": "bool",
          "name": "",
          "type": "bool"
        }
      ],
      "stateMutability": "view",
      "type": "function"
    },
    {
      "inputs": [
        {
          "internalType": "address",
          "name": "_to",
          "type": "address"
        },
        {
          "internalType": "string",
          "name": "_cid",
          "type": "string"
        }
      ],
      "name": "mintToken",
      "outputs": [],
      "stateMutability": "nonpayable",
      "type": "function"
    },
    {
      "inputs": [],
      "name": "name",
      "outputs": [
        {
          "internalType": "string",
          "name": "",
          "type": "string"
        }
      ],
      "stateMutability": "view",
      "type": "function"
    },
    {
      "inputs": [],
      "name": "owner",
      "outputs": [
        {
          "internalType": "address",
          "name": "",
          "type": "address"
        }
      ],
      "stateMutability": "view",
      "type": "function"
    },
    {
      "inputs": [
        {
          "internalType": "uint256",
          "name": "tokenId",
          "type": "uint256"
        }
      ],
      "name": "ownerOf",
      "outputs": [
        {
          "internalType": "address",
          "name": "",
          "type": "address"
        }
      ],
      "stateMutability": "view",
      "type": "function"
    },
    {
      "inputs": [],
      "name": "renounceOwnership",
      "outputs": [],
      "stateMutability": "nonpayable",
      "type": "function"
    },
    {
      "inputs": [
        {
          "internalType": "address",
          "name": "from",
          "type": "address"
        },
        {
          "internalType": "address",
          "name": "to",
          "type": "address"
        },
        {
          "internalType": "uint256",
          "name": "tokenId",
          "type": "uint256"
        }
      ],
      "name": "safeTransferFrom",
      "outputs": [],
      "stateMutability": "nonpayable",
      "type": "function"
    },
    {
      "inputs": [
        {
          "internalType": "address",
          "name": "from",
          "type": "address"
        },
        {
          "internalType": "address",
          "name": "to",
          "type": "address"
        },
        {
          "internalType": "uint256",
          "name": "tokenId",
          "type": "uint256"
        },
        {
          "internalType": "bytes",
          "name": "_data",
          "type": "bytes"
        }
      ],
      "name": "safeTransferFrom",
      "outputs": [],
      "stateMutability": "nonpayable",
      "type": "function"
    },
    {
      "inputs": [
        {
          "internalType": "address",
          "name": "operator",
          "type": "address"
        },
        {
          "internalType": "bool",
          "name": "approved",
          "type": "bool"
        }
      ],
      "name": "setApprovalForAll",
      "outputs": [],
      "stateMutability": "nonpayable",
      "type": "function"
    },
    {
      "inputs": [
        {
          "internalType": "bytes4",
          "name": "interfaceId",
          "type": "bytes4"
        }
      ],
      "name": "supportsInterface",
      "outputs": [
        {
          "internalType": "bool",
          "name": "",
          "type": "bool"
        }
      ],
      "stateMutability": "view",
      "type": "function"
    },
    {
      "inputs": [],
      "name": "symbol",
      "outputs": [
        {
          "internalType": "string",
          "name": "",
          "type": "string"
        }
      ],
      "stateMutability": "view",
      "type": "function"
    },
    {
      "inputs": [
        {
          "internalType": "uint256",
          "name": "tokenId",
          "type": "uint256"
        }
      ],
      "name": "tokenURI",
      "outputs": [
        {
          "internalType": "string",
          "name": "",
          "type": "string"
        }
      ],
      "stateMutability": "view",
      "type": "function"
    },
    {
      "inputs": [
        {
          "internalType": "address",
          "name": "from",
          "type": "address"
        },
        {
          "internalType": "address",
          "name": "to",
          "type": "address"
        },
        {
          "internalType": "uint256",
          "name": "tokenId",
          "type": "uint256"
        }
      ],
      "name": "transferFrom",
      "outputs": [],
      "stateMutability": "nonpayable",
      "type": "function"
    },
    {
      "inputs": [
        {
          "internalType": "address",
          "name": "newOwner",
          "type": "address"
        }
      ],
      "name": "transferOwnership",
      "outputs": [],
      "stateMutability": "nonpayable",
      "type": "function"
    },
    {
      "inputs": [
        {
          "internalType": "address",
          "name": "",
          "type": "address"
        },
        {
          "internalType": "uint256",
          "name": "",
          "type": "uint256"
        }
      ],
      "name": "userNFTs",
      "outputs": [
        {
          "internalType": "uint256",
          "name": "timestamp",
          "type": "uint256"
        },
        {
          "internalType": "uint256",
          "name": "tokenID",
          "type": "uint256"
        },
        {
          "internalType": "string",
          "name": "tokenURI",
          "type": "string"
        }
      ],
      "stateMutability": "view",
      "type": "function"
    }
  ],
  "bytecode": "0x60806040523480156200001157600080fd5b506040518060400160405280600a81526020017f566f6c63616e6f4e4654000000000000000000000000000000000000000000008152506040518060400160405280600281526020017f564e000000000000000000000000000000000000000000000000000000000000815250816000908051906020019062000096929190620001a6565b508060019080519060200190620000af929190620001a6565b505050620000d2620000c6620000d860201b60201c565b620000e060201b60201c565b620002bb565b600033905090565b6000600760009054906101000a900473ffffffffffffffffffffffffffffffffffffffff16905081600760006101000a81548173ffffffffffffffffffffffffffffffffffffffff021916908373ffffffffffffffffffffffffffffffffffffffff1602179055508173ffffffffffffffffffffffffffffffffffffffff168173ffffffffffffffffffffffffffffffffffffffff167f8be0079c531659141344cd1fd0a4f28419497f9722a3daafe3b4186f6b6457e060405160405180910390a35050565b828054620001b49062000256565b90600052602060002090601f016020900481019282620001d8576000855562000224565b82601f10620001f357805160ff191683800117855562000224565b8280016001018555821562000224579182015b828111156200022357825182559160200191906001019062000206565b5b50905062000233919062000237565b5090565b5b808211156200025257600081600090555060010162000238565b5090565b600060028204905060018216806200026f57607f821691505b602082108114156200028657620002856200028c565b5b50919050565b7f4e487b7100000000000000000000000000000000000000000000000000000000600052602260045260246000fd5b6139f180620002cb6000396000f3fe608060405234801561001057600080fd5b50600436106101215760003560e01c80636352211e116100ad578063a22cb46511610071578063a22cb4651461031c578063b88d4fde14610338578063c87b56dd14610354578063e985e9c514610384578063f2fde38b146103b457610121565b80636352211e1461027657806370a08231146102a6578063715018a6146102d65780638da5cb5b146102e057806395d89b41146102fe57610121565b80630f43d7aa116100f45780630f43d7aa146101c057806323b872dd146101f0578063291c73c31461020c5780633d02d0c91461023e57806342842e0e1461025a57610121565b806301ffc9a71461012657806306fdde0314610156578063081812fc14610174578063095ea7b3146101a4575b600080fd5b610140600480360381019061013b91906126fa565b6103d0565b60405161014d9190612ceb565b60405180910390f35b61015e6104b2565b60405161016b9190612d06565b60405180910390f35b61018e6004803603810190610189919061274c565b610544565b60405161019b9190612c62565b60405180910390f35b6101be60048036038101906101b991906126be565b6105c9565b005b6101da60048036038101906101d591906124ff565b6106e1565b6040516101e79190612cc9565b60405180910390f35b61020a60048036038101906102059190612564565b610825565b005b610226600480360381019061022191906126be565b610885565b60405161023593929190612fa3565b60405180910390f35b6102586004803603810190610253919061266a565b610954565b005b610274600480360381019061026f9190612564565b610a50565b005b610290600480360381019061028b919061274c565b610b4d565b60405161029d9190612c62565b60405180910390f35b6102c060048036038101906102bb91906124ff565b610bff565b6040516102cd9190612f88565b60405180910390f35b6102de610cb7565b005b6102e8610d3f565b6040516102f59190612c62565b60405180910390f35b610306610d69565b6040516103139190612d06565b60405180910390f35b6103366004803603810190610331919061262e565b610dfb565b005b610352600480360381019061034d91906125b3565b610e11565b005b61036e6004803603810190610369919061274c565b610e73565b60405161037b9190612d06565b60405180910390f35b61039e60048036038101906103999190612528565b610e85565b6040516103ab9190612ceb565b60405180910390f35b6103ce60048036038101906103c991906124ff565b610f19565b005b60007f80ac58cd000000000000000000000000000000000000000000000000000000007bffffffffffffffffffffffffffffffffffffffffffffffffffffffff1916827bffffffffffffffffffffffffffffffffffffffffffffffffffffffff1916148061049b57507f5b5e139f000000000000000000000000000000000000000000000000000000007bffffffffffffffffffffffffffffffffffffffffffffffffffffffff1916827bffffffffffffffffffffffffffffffffffffffffffffffffffffffff1916145b806104ab57506104aa82611011565b5b9050919050565b6060600080546104c190613266565b80601f01602080910402602001604051908101604052809291908181526020018280546104ed90613266565b801561053a5780601f1061050f5761010080835404028352916020019161053a565b820191906000526020600020905b81548152906001019060200180831161051d57829003601f168201915b5050505050905090565b600061054f8261107b565b61058e576040517f08c379a000000000000000000000000000000000000000000000000000000000815260040161058590612ea8565b60405180910390fd5b6004600083815260200190815260200160002060009054906101000a900473ffffffffffffffffffffffffffffffffffffffff169050919050565b60006105d482610b4d565b90508073ffffffffffffffffffffffffffffffffffffffff168373ffffffffffffffffffffffffffffffffffffffff161415610645576040517f08c379a000000000000000000000000000000000000000000000000000000000815260040161063c90612f28565b60405180910390fd5b8073ffffffffffffffffffffffffffffffffffffffff166106646110e7565b73ffffffffffffffffffffffffffffffffffffffff16148061069357506106928161068d6110e7565b610e85565b5b6106d2576040517f08c379a00000000000000000000000000000000000000000000000000000000081526004016106c990612de8565b60405180910390fd5b6106dc83836110ef565b505050565b6060600960008373ffffffffffffffffffffffffffffffffffffffff1673ffffffffffffffffffffffffffffffffffffffff168152602001908152602001600020805480602002602001604051908101604052809291908181526020016000905b8282101561081a5783829060005260206000209060030201604051806060016040529081600082015481526020016001820154815260200160028201805461078990613266565b80601f01602080910402602001604051908101604052809291908181526020018280546107b590613266565b80156108025780601f106107d757610100808354040283529160200191610802565b820191906000526020600020905b8154815290600101906020018083116107e557829003601f168201915b50505050508152505081526020019060010190610742565b505050509050919050565b6108366108306110e7565b826111a8565b610875576040517f08c379a000000000000000000000000000000000000000000000000000000000815260040161086c90612f68565b60405180910390fd5b610880838383611286565b505050565b600960205281600052604060002081815481106108a157600080fd5b9060005260206000209060030201600091509150508060000154908060010154908060020180546108d190613266565b80601f01602080910402602001604051908101604052809291908181526020018280546108fd90613266565b801561094a5780601f1061091f5761010080835404028352916020019161094a565b820191906000526020600020905b81548152906001019060200180831161092d57829003601f168201915b5050505050905083565b610960826008546114e2565b61096c60085482611500565b600060405180606001604052804281526020016008548152602001610992600854610e73565b8152509050600960008473ffffffffffffffffffffffffffffffffffffffff1673ffffffffffffffffffffffffffffffffffffffff16815260200190815260200160002081908060018154018082558091505060019003906000526020600020906003020160009091909190915060008201518160000155602082015181600101556040820151816002019080519060200190610a30929190612288565b50505060086000815480929190610a46906132c9565b9190505550505050565b610a5981611574565b60006040518060600160405280428152602001838152602001610a7a61181e565b84604051602001610a8c929190612c3a565b6040516020818303038152906040528152509050600960008473ffffffffffffffffffffffffffffffffffffffff1673ffffffffffffffffffffffffffffffffffffffff16815260200190815260200160002081908060018154018082558091505060019003906000526020600020906003020160009091909190915060008201518160000155602082015181600101556040820151816002019080519060200190610b39929190612288565b505050610b4784848461185b565b50505050565b6000806002600084815260200190815260200160002060009054906101000a900473ffffffffffffffffffffffffffffffffffffffff169050600073ffffffffffffffffffffffffffffffffffffffff168173ffffffffffffffffffffffffffffffffffffffff161415610bf6576040517f08c379a0000000000000000000000000000000000000000000000000000000008152600401610bed90612e28565b60405180910390fd5b80915050919050565b60008073ffffffffffffffffffffffffffffffffffffffff168273ffffffffffffffffffffffffffffffffffffffff161415610c70576040517f08c379a0000000000000000000000000000000000000000000000000000000008152600401610c6790612e08565b60405180910390fd5b600360008373ffffffffffffffffffffffffffffffffffffffff1673ffffffffffffffffffffffffffffffffffffffff168152602001908152602001600020549050919050565b610cbf6110e7565b73ffffffffffffffffffffffffffffffffffffffff16610cdd610d3f565b73ffffffffffffffffffffffffffffffffffffffff1614610d33576040517f08c379a0000000000000000000000000000000000000000000000000000000008152600401610d2a90612ec8565b60405180910390fd5b610d3d600061187b565b565b6000600760009054906101000a900473ffffffffffffffffffffffffffffffffffffffff16905090565b606060018054610d7890613266565b80601f0160208091040260200160405190810160405280929190818152602001828054610da490613266565b8015610df15780601f10610dc657610100808354040283529160200191610df1565b820191906000526020600020905b815481529060010190602001808311610dd457829003601f168201915b5050505050905090565b610e0d610e066110e7565b8383611941565b5050565b610e22610e1c6110e7565b836111a8565b610e61576040517f08c379a0000000000000000000000000000000000000000000000000000000008152600401610e5890612f68565b60405180910390fd5b610e6d84848484611aae565b50505050565b6060610e7e82611b0a565b9050919050565b6000600560008473ffffffffffffffffffffffffffffffffffffffff1673ffffffffffffffffffffffffffffffffffffffff16815260200190815260200160002060008373ffffffffffffffffffffffffffffffffffffffff1673ffffffffffffffffffffffffffffffffffffffff16815260200190815260200160002060009054906101000a900460ff16905092915050565b610f216110e7565b73ffffffffffffffffffffffffffffffffffffffff16610f3f610d3f565b73ffffffffffffffffffffffffffffffffffffffff1614610f95576040517f08c379a0000000000000000000000000000000000000000000000000000000008152600401610f8c90612ec8565b60405180910390fd5b600073ffffffffffffffffffffffffffffffffffffffff168173ffffffffffffffffffffffffffffffffffffffff161415611005576040517f08c379a0000000000000000000000000000000000000000000000000000000008152600401610ffc90612d48565b60405180910390fd5b61100e8161187b565b50565b60007f01ffc9a7000000000000000000000000000000000000000000000000000000007bffffffffffffffffffffffffffffffffffffffffffffffffffffffff1916827bffffffffffffffffffffffffffffffffffffffffffffffffffffffff1916149050919050565b60008073ffffffffffffffffffffffffffffffffffffffff166002600084815260200190815260200160002060009054906101000a900473ffffffffffffffffffffffffffffffffffffffff1673ffffffffffffffffffffffffffffffffffffffff1614159050919050565b600033905090565b816004600083815260200190815260200160002060006101000a81548173ffffffffffffffffffffffffffffffffffffffff021916908373ffffffffffffffffffffffffffffffffffffffff160217905550808273ffffffffffffffffffffffffffffffffffffffff1661116283610b4d565b73ffffffffffffffffffffffffffffffffffffffff167f8c5be1e5ebec7d5bd14f71427d1e84f3dd0314c0f7b2291e5b200ac8c7c3b92560405160405180910390a45050565b60006111b38261107b565b6111f2576040517f08c379a00000000000000000000000000000000000000000000000000000000081526004016111e990612dc8565b60405180910390fd5b60006111fd83610b4d565b90508073ffffffffffffffffffffffffffffffffffffffff168473ffffffffffffffffffffffffffffffffffffffff16148061126c57508373ffffffffffffffffffffffffffffffffffffffff1661125484610544565b73ffffffffffffffffffffffffffffffffffffffff16145b8061127d575061127c8185610e85565b5b91505092915050565b8273ffffffffffffffffffffffffffffffffffffffff166112a682610b4d565b73ffffffffffffffffffffffffffffffffffffffff16146112fc576040517f08c379a00000000000000000000000000000000000000000000000000000000081526004016112f390612ee8565b60405180910390fd5b600073ffffffffffffffffffffffffffffffffffffffff168273ffffffffffffffffffffffffffffffffffffffff16141561136c576040517f08c379a000000000000000000000000000000000000000000000000000000000815260040161136390612d88565b60405180910390fd5b611377838383611c5c565b6113826000826110ef565b6001600360008573ffffffffffffffffffffffffffffffffffffffff1673ffffffffffffffffffffffffffffffffffffffff16815260200190815260200160002060008282546113d2919061317c565b925050819055506001600360008473ffffffffffffffffffffffffffffffffffffffff1673ffffffffffffffffffffffffffffffffffffffff168152602001908152602001600020600082825461142991906130f5565b92505081905550816002600083815260200190815260200160002060006101000a81548173ffffffffffffffffffffffffffffffffffffffff021916908373ffffffffffffffffffffffffffffffffffffffff160217905550808273ffffffffffffffffffffffffffffffffffffffff168473ffffffffffffffffffffffffffffffffffffffff167fddf252ad1be2c89b69c2b068fc378daa952ba7f163c4a11628f55a4df523b3ef60405160405180910390a4505050565b6114fc828260405180602001604052806000815250611c61565b5050565b6115098261107b565b611548576040517f08c379a000000000000000000000000000000000000000000000000000000000815260040161153f90612e48565b60405180910390fd5b8060066000848152602001908152602001600020908051906020019061156f929190612288565b505050565b3373ffffffffffffffffffffffffffffffffffffffff1661159482610b4d565b73ffffffffffffffffffffffffffffffffffffffff16146115ea576040517f08c379a00000000000000000000000000000000000000000000000000000000081526004016115e190612f48565b60405180910390fd5b60005b600960003373ffffffffffffffffffffffffffffffffffffffff1673ffffffffffffffffffffffffffffffffffffffff1681526020019081526020016000208054905081101561181a5781600960003373ffffffffffffffffffffffffffffffffffffffff1673ffffffffffffffffffffffffffffffffffffffff16815260200190815260200160002082815481106116af577f4e487b7100000000000000000000000000000000000000000000000000000000600052603260045260246000fd5b906000526020600020906003020160010154141561180757600960003373ffffffffffffffffffffffffffffffffffffffff1673ffffffffffffffffffffffffffffffffffffffff168152602001908152602001600020818154811061173e577f4e487b7100000000000000000000000000000000000000000000000000000000600052603260045260246000fd5b9060005260206000209060030201600080820160009055600182016000905560028201600061176d919061230e565b50506000600960003373ffffffffffffffffffffffffffffffffffffffff1673ffffffffffffffffffffffffffffffffffffffff16815260200190815260200160002080549050141561180657600960003373ffffffffffffffffffffffffffffffffffffffff1673ffffffffffffffffffffffffffffffffffffffff1681526020019081526020016000206000611805919061234e565b5b5b8080611812906132c9565b9150506115ed565b5050565b60606040518060400160405280600781526020017f697066733a2f2f00000000000000000000000000000000000000000000000000815250905090565b61187683838360405180602001604052806000815250610e11565b505050565b6000600760009054906101000a900473ffffffffffffffffffffffffffffffffffffffff16905081600760006101000a81548173ffffffffffffffffffffffffffffffffffffffff021916908373ffffffffffffffffffffffffffffffffffffffff1602179055508173ffffffffffffffffffffffffffffffffffffffff168173ffffffffffffffffffffffffffffffffffffffff167f8be0079c531659141344cd1fd0a4f28419497f9722a3daafe3b4186f6b6457e060405160405180910390a35050565b8173ffffffffffffffffffffffffffffffffffffffff168373ffffffffffffffffffffffffffffffffffffffff1614156119b0576040517f08c379a00000000000000000000000000000000000000000000000000000000081526004016119a790612da8565b60405180910390fd5b80600560008573ffffffffffffffffffffffffffffffffffffffff1673ffffffffffffffffffffffffffffffffffffffff16815260200190815260200160002060008473ffffffffffffffffffffffffffffffffffffffff1673ffffffffffffffffffffffffffffffffffffffff16815260200190815260200160002060006101000a81548160ff0219169083151502179055508173ffffffffffffffffffffffffffffffffffffffff168373ffffffffffffffffffffffffffffffffffffffff167f17307eab39ab6107e8899845ad3d59bd9653f200f220920489ca2b5937696c3183604051611aa19190612ceb565b60405180910390a3505050565b611ab9848484611286565b611ac584848484611cbc565b611b04576040517f08c379a0000000000000000000000000000000000000000000000000000000008152600401611afb90612d28565b60405180910390fd5b50505050565b6060611b158261107b565b611b54576040517f08c379a0000000000000000000000000000000000000000000000000000000008152600401611b4b90612e88565b60405180910390fd5b6000600660008481526020019081526020016000208054611b7490613266565b80601f0160208091040260200160405190810160405280929190818152602001828054611ba090613266565b8015611bed5780601f10611bc257610100808354040283529160200191611bed565b820191906000526020600020905b815481529060010190602001808311611bd057829003601f168201915b505050505090506000611bfe61181e565b9050600081511415611c14578192505050611c57565b600082511115611c49578082604051602001611c31929190612c16565b60405160208183030381529060405292505050611c57565b611c5284611e53565b925050505b919050565b505050565b611c6b8383611efa565b611c786000848484611cbc565b611cb7576040517f08c379a0000000000000000000000000000000000000000000000000000000008152600401611cae90612d28565b60405180910390fd5b505050565b6000611cdd8473ffffffffffffffffffffffffffffffffffffffff166120c8565b15611e46578373ffffffffffffffffffffffffffffffffffffffff1663150b7a02611d066110e7565b8786866040518563ffffffff1660e01b8152600401611d289493929190612c7d565b602060405180830381600087803b158015611d4257600080fd5b505af1925050508015611d7357506040513d601f19601f82011682018060405250810190611d709190612723565b60015b611df6573d8060008114611da3576040519150601f19603f3d011682016040523d82523d6000602084013e611da8565b606091505b50600081511415611dee576040517f08c379a0000000000000000000000000000000000000000000000000000000008152600401611de590612d28565b60405180910390fd5b805181602001fd5b63150b7a0260e01b7bffffffffffffffffffffffffffffffffffffffffffffffffffffffff1916817bffffffffffffffffffffffffffffffffffffffffffffffffffffffff191614915050611e4b565b600190505b949350505050565b6060611e5e8261107b565b611e9d576040517f08c379a0000000000000000000000000000000000000000000000000000000008152600401611e9490612f08565b60405180910390fd5b6000611ea761181e565b90506000815111611ec75760405180602001604052806000815250611ef2565b80611ed1846120db565b604051602001611ee2929190612c16565b6040516020818303038152906040525b915050919050565b600073ffffffffffffffffffffffffffffffffffffffff168273ffffffffffffffffffffffffffffffffffffffff161415611f6a576040517f08c379a0000000000000000000000000000000000000000000000000000000008152600401611f6190612e68565b60405180910390fd5b611f738161107b565b15611fb3576040517f08c379a0000000000000000000000000000000000000000000000000000000008152600401611faa90612d68565b60405180910390fd5b611fbf60008383611c5c565b6001600360008473ffffffffffffffffffffffffffffffffffffffff1673ffffffffffffffffffffffffffffffffffffffff168152602001908152602001600020600082825461200f91906130f5565b92505081905550816002600083815260200190815260200160002060006101000a81548173ffffffffffffffffffffffffffffffffffffffff021916908373ffffffffffffffffffffffffffffffffffffffff160217905550808273ffffffffffffffffffffffffffffffffffffffff16600073ffffffffffffffffffffffffffffffffffffffff167fddf252ad1be2c89b69c2b068fc378daa952ba7f163c4a11628f55a4df523b3ef60405160405180910390a45050565b600080823b905060008111915050919050565b60606000821415612123576040518060400160405280600181526020017f30000000000000000000000000000000000000000000000000000000000000008152509050612283565b600082905060005b6000821461215557808061213e906132c9565b915050600a8261214e919061314b565b915061212b565b60008167ffffffffffffffff811115612197577f4e487b7100000000000000000000000000000000000000000000000000000000600052604160045260246000fd5b6040519080825280601f01601f1916602001820160405280156121c95781602001600182028036833780820191505090505b5090505b6000851461227c576001826121e2919061317c565b9150600a856121f1919061331c565b60306121fd91906130f5565b60f81b818381518110612239577f4e487b7100000000000000000000000000000000000000000000000000000000600052603260045260246000fd5b60200101907effffffffffffffffffffffffffffffffffffffffffffffffffffffffffffff1916908160001a905350600a85612275919061314b565b94506121cd565b8093505050505b919050565b82805461229490613266565b90600052602060002090601f0160209004810192826122b657600085556122fd565b82601f106122cf57805160ff19168380011785556122fd565b828001600101855582156122fd579182015b828111156122fc5782518255916020019190600101906122e1565b5b50905061230a9190612372565b5090565b50805461231a90613266565b6000825580601f1061232c575061234b565b601f01602090049060005260206000209081019061234a9190612372565b5b50565b508054600082556003029060005260206000209081019061236f919061238f565b50565b5b8082111561238b576000816000905550600101612373565b5090565b5b808211156123c25760008082016000905560018201600090556002820160006123b9919061230e565b50600301612390565b5090565b60006123d96123d484613006565b612fe1565b9050828152602081018484840111156123f157600080fd5b6123fc848285613224565b509392505050565b600061241761241284613037565b612fe1565b90508281526020810184848401111561242f57600080fd5b61243a848285613224565b509392505050565b6000813590506124518161395f565b92915050565b60008135905061246681613976565b92915050565b60008135905061247b8161398d565b92915050565b6000815190506124908161398d565b92915050565b600082601f8301126124a757600080fd5b81356124b78482602086016123c6565b91505092915050565b600082601f8301126124d157600080fd5b81356124e1848260208601612404565b91505092915050565b6000813590506124f9816139a4565b92915050565b60006020828403121561251157600080fd5b600061251f84828501612442565b91505092915050565b6000806040838503121561253b57600080fd5b600061254985828601612442565b925050602061255a85828601612442565b9150509250929050565b60008060006060848603121561257957600080fd5b600061258786828701612442565b935050602061259886828701612442565b92505060406125a9868287016124ea565b9150509250925092565b600080600080608085870312156125c957600080fd5b60006125d787828801612442565b94505060206125e887828801612442565b93505060406125f9878288016124ea565b925050606085013567ffffffffffffffff81111561261657600080fd5b61262287828801612496565b91505092959194509250565b6000806040838503121561264157600080fd5b600061264f85828601612442565b925050602061266085828601612457565b9150509250929050565b6000806040838503121561267d57600080fd5b600061268b85828601612442565b925050602083013567ffffffffffffffff8111156126a857600080fd5b6126b4858286016124c0565b9150509250929050565b600080604083850312156126d157600080fd5b60006126df85828601612442565b92505060206126f0858286016124ea565b9150509250929050565b60006020828403121561270c57600080fd5b600061271a8482850161246c565b91505092915050565b60006020828403121561273557600080fd5b600061274384828501612481565b91505092915050565b60006020828403121561275e57600080fd5b600061276c848285016124ea565b91505092915050565b60006127818383612b91565b905092915050565b612792816131b0565b82525050565b60006127a382613078565b6127ad81856130a6565b9350836020820285016127bf85613068565b8060005b858110156127fb57848403895281516127dc8582612775565b94506127e783613099565b925060208a019950506001810190506127c3565b50829750879550505050505092915050565b612816816131c2565b82525050565b600061282782613083565b61283181856130b7565b9350612841818560208601613233565b61284a81613409565b840191505092915050565b60006128608261308e565b61286a81856130c8565b935061287a818560208601613233565b61288381613409565b840191505092915050565b60006128998261308e565b6128a381856130d9565b93506128b3818560208601613233565b6128bc81613409565b840191505092915050565b60006128d28261308e565b6128dc81856130ea565b93506128ec818560208601613233565b80840191505092915050565b60006129056032836130d9565b91506129108261341a565b604082019050919050565b60006129286026836130d9565b915061293382613469565b604082019050919050565b600061294b601c836130d9565b9150612956826134b8565b602082019050919050565b600061296e6024836130d9565b9150612979826134e1565b604082019050919050565b60006129916019836130d9565b915061299c82613530565b602082019050919050565b60006129b4602c836130d9565b91506129bf82613559565b604082019050919050565b60006129d76038836130d9565b91506129e2826135a8565b604082019050919050565b60006129fa602a836130d9565b9150612a05826135f7565b604082019050919050565b6000612a1d6029836130d9565b9150612a2882613646565b604082019050919050565b6000612a40602e836130d9565b9150612a4b82613695565b604082019050919050565b6000612a636020836130d9565b9150612a6e826136e4565b602082019050919050565b6000612a866031836130d9565b9150612a918261370d565b604082019050919050565b6000612aa9602c836130d9565b9150612ab48261375c565b604082019050919050565b6000612acc6020836130d9565b9150612ad7826137ab565b602082019050919050565b6000612aef6029836130d9565b9150612afa826137d4565b604082019050919050565b6000612b12602f836130d9565b9150612b1d82613823565b604082019050919050565b6000612b356021836130d9565b9150612b4082613872565b604082019050919050565b6000612b586022836130d9565b9150612b63826138c1565b604082019050919050565b6000612b7b6031836130d9565b9150612b8682613910565b604082019050919050565b6000606083016000830151612ba96000860182612be1565b506020830151612bbc6020860182612be1565b5060408301518482036040860152612bd48282612855565b9150508091505092915050565b612bea8161321a565b82525050565b612bf98161321a565b82525050565b612c10612c0b8261321a565b613312565b82525050565b6000612c2282856128c7565b9150612c2e82846128c7565b91508190509392505050565b6000612c4682856128c7565b9150612c528284612bff565b6020820191508190509392505050565b6000602082019050612c776000830184612789565b92915050565b6000608082019050612c926000830187612789565b612c9f6020830186612789565b612cac6040830185612bf0565b8181036060830152612cbe818461281c565b905095945050505050565b60006020820190508181036000830152612ce38184612798565b905092915050565b6000602082019050612d00600083018461280d565b92915050565b60006020820190508181036000830152612d20818461288e565b905092915050565b60006020820190508181036000830152612d41816128f8565b9050919050565b60006020820190508181036000830152612d618161291b565b9050919050565b60006020820190508181036000830152612d818161293e565b9050919050565b60006020820190508181036000830152612da181612961565b9050919050565b60006020820190508181036000830152612dc181612984565b9050919050565b60006020820190508181036000830152612de1816129a7565b9050919050565b60006020820190508181036000830152612e01816129ca565b9050919050565b60006020820190508181036000830152612e21816129ed565b9050919050565b60006020820190508181036000830152612e4181612a10565b9050919050565b60006020820190508181036000830152612e6181612a33565b9050919050565b60006020820190508181036000830152612e8181612a56565b9050919050565b60006020820190508181036000830152612ea181612a79565b9050919050565b60006020820190508181036000830152612ec181612a9c565b9050919050565b60006020820190508181036000830152612ee181612abf565b9050919050565b60006020820190508181036000830152612f0181612ae2565b9050919050565b60006020820190508181036000830152612f2181612b05565b9050919050565b60006020820190508181036000830152612f4181612b28565b9050919050565b60006020820190508181036000830152612f6181612b4b565b9050919050565b60006020820190508181036000830152612f8181612b6e565b9050919050565b6000602082019050612f9d6000830184612bf0565b92915050565b6000606082019050612fb86000830186612bf0565b612fc56020830185612bf0565b8181036040830152612fd7818461288e565b9050949350505050565b6000612feb612ffc565b9050612ff78282613298565b919050565b6000604051905090565b600067ffffffffffffffff821115613021576130206133da565b5b61302a82613409565b9050602081019050919050565b600067ffffffffffffffff821115613052576130516133da565b5b61305b82613409565b9050602081019050919050565b6000819050602082019050919050565b600081519050919050565b600081519050919050565b600081519050919050565b6000602082019050919050565b600082825260208201905092915050565b600082825260208201905092915050565b600082825260208201905092915050565b600082825260208201905092915050565b600081905092915050565b60006131008261321a565b915061310b8361321a565b9250827fffffffffffffffffffffffffffffffffffffffffffffffffffffffffffffffff038211156131405761313f61334d565b5b828201905092915050565b60006131568261321a565b91506131618361321a565b9250826131715761317061337c565b5b828204905092915050565b60006131878261321a565b91506131928361321a565b9250828210156131a5576131a461334d565b5b828203905092915050565b60006131bb826131fa565b9050919050565b60008115159050919050565b60007fffffffff0000000000000000000000000000000000000000000000000000000082169050919050565b600073ffffffffffffffffffffffffffffffffffffffff82169050919050565b6000819050919050565b82818337600083830152505050565b60005b83811015613251578082015181840152602081019050613236565b83811115613260576000848401525b50505050565b6000600282049050600182168061327e57607f821691505b60208210811415613292576132916133ab565b5b50919050565b6132a182613409565b810181811067ffffffffffffffff821117156132c0576132bf6133da565b5b80604052505050565b60006132d48261321a565b91507fffffffffffffffffffffffffffffffffffffffffffffffffffffffffffffffff8214156133075761330661334d565b5b600182019050919050565b6000819050919050565b60006133278261321a565b91506133328361321a565b9250826133425761334161337c565b5b828206905092915050565b7f4e487b7100000000000000000000000000000000000000000000000000000000600052601160045260246000fd5b7f4e487b7100000000000000000000000000000000000000000000000000000000600052601260045260246000fd5b7f4e487b7100000000000000000000000000000000000000000000000000000000600052602260045260246000fd5b7f4e487b7100000000000000000000000000000000000000000000000000000000600052604160045260246000fd5b6000601f19601f8301169050919050565b7f4552433732313a207472616e7366657220746f206e6f6e20455243373231526560008201527f63656976657220696d706c656d656e7465720000000000000000000000000000602082015250565b7f4f776e61626c653a206e6577206f776e657220697320746865207a65726f206160008201527f6464726573730000000000000000000000000000000000000000000000000000602082015250565b7f4552433732313a20746f6b656e20616c7265616479206d696e74656400000000600082015250565b7f4552433732313a207472616e7366657220746f20746865207a65726f2061646460008201527f7265737300000000000000000000000000000000000000000000000000000000602082015250565b7f4552433732313a20617070726f766520746f2063616c6c657200000000000000600082015250565b7f4552433732313a206f70657261746f7220717565727920666f72206e6f6e657860008201527f697374656e7420746f6b656e0000000000000000000000000000000000000000602082015250565b7f4552433732313a20617070726f76652063616c6c6572206973206e6f74206f7760008201527f6e6572206e6f7220617070726f76656420666f7220616c6c0000000000000000602082015250565b7f4552433732313a2062616c616e636520717565727920666f7220746865207a6560008201527f726f206164647265737300000000000000000000000000000000000000000000602082015250565b7f4552433732313a206f776e657220717565727920666f72206e6f6e657869737460008201527f656e7420746f6b656e0000000000000000000000000000000000000000000000602082015250565b7f45524337323155524953746f726167653a2055524920736574206f66206e6f6e60008201527f6578697374656e7420746f6b656e000000000000000000000000000000000000602082015250565b7f4552433732313a206d696e7420746f20746865207a65726f2061646472657373600082015250565b7f45524337323155524953746f726167653a2055524920717565727920666f722060008201527f6e6f6e6578697374656e7420746f6b656e000000000000000000000000000000602082015250565b7f4552433732313a20617070726f76656420717565727920666f72206e6f6e657860008201527f697374656e7420746f6b656e0000000000000000000000000000000000000000602082015250565b7f4f776e61626c653a2063616c6c6572206973206e6f7420746865206f776e6572600082015250565b7f4552433732313a207472616e73666572206f6620746f6b656e2074686174206960008201527f73206e6f74206f776e0000000000000000000000000000000000000000000000602082015250565b7f4552433732314d657461646174613a2055524920717565727920666f72206e6f60008201527f6e6578697374656e7420746f6b656e0000000000000000000000000000000000602082015250565b7f4552433732313a20617070726f76616c20746f2063757272656e74206f776e6560008201527f7200000000000000000000000000000000000000000000000000000000000000602082015250565b7f596f7520617265206e6f7420746865206f776e6572206f662074686520746f6b60008201527f656e000000000000000000000000000000000000000000000000000000000000602082015250565b7f4552433732313a207472616e736665722063616c6c6572206973206e6f74206f60008201527f776e6572206e6f7220617070726f766564000000000000000000000000000000602082015250565b613968816131b0565b811461397357600080fd5b50565b61397f816131c2565b811461398a57600080fd5b50565b613996816131ce565b81146139a157600080fd5b50565b6139ad8161321a565b81146139b857600080fd5b5056fea2646970667358221220a1161f219b3e46950f78b9444a3adacb2d1e369cc6af3a40f00469585a23b02f64736f6c63430008040033",
  "linkReferences": {},
  "deployedLinkReferences": {}
}